{
    "_format": "hh-sol-artifact-1",
    "contractName": "GradeTracker",
    "sourceName": "contracts/GradeTracker.sol",
    "abi": [
        {
            "inputs": [],
            "stateMutability": "nonpayable",
            "type": "constructor"
        },
        {
            "anonymous": false,
            "inputs": [
                {
                    "indexed": false,
                    "internalType": "bytes32",
                    "name": "hashIdAlumno",
                    "type": "bytes32"
                },
                {
                    "indexed": false,
                    "internalType": "uint256",
                    "name": "nota",
                    "type": "uint256"
                }
            ],
            "name": "AlumnoEvaluado",
            "type": "event"
        },
        {
            "anonymous": false,
            "inputs": [
                {
                    "indexed": false,
                    "internalType": "bytes32",
                    "name": "hashIdAlumno",
                    "type": "bytes32"
                },
                {
                    "indexed": false,
                    "internalType": "address",
                    "name": "direccionAlumno",
                    "type": "address"
                }
            ],
            "name": "DireccionAsignada",
            "type": "event"
        },
        {
            "anonymous": false,
            "inputs": [
                {
                    "indexed": false,
                    "internalType": "string",
                    "name": "idAlumno",
                    "type": "string"
                }
            ],
            "name": "EventoRevision",
            "type": "event"
        },
        {
            "anonymous": false,
            "inputs": [
                {
                    "indexed": true,
                    "internalType": "address",
                    "name": "previousOwner",
                    "type": "address"
                },
                {
                    "indexed": true,
                    "internalType": "address",
                    "name": "newOwner",
                    "type": "address"
                }
            ],
            "name": "OwnershipTransferred",
            "type": "event"
        },
        {
            "inputs": [
                {
                    "internalType": "string",
                    "name": "_idAlumno",
                    "type": "string"
                },
                {
                    "internalType": "address",
                    "name": "_direccionAlumno",
                    "type": "address"
                }
            ],
            "name": "asignarDireccion",
            "outputs": [],
            "stateMutability": "nonpayable",
            "type": "function"
        },
        {
            "inputs": [
                {
                    "internalType": "string",
                    "name": "_idAlumno",
                    "type": "string"
                },
                {
                    "internalType": "uint256",
                    "name": "_nota",
                    "type": "uint256"
                }
            ],
            "name": "evaluar",
            "outputs": [],
            "stateMutability": "nonpayable",
            "type": "function"
        },
        {
            "inputs": [
                {
                    "internalType": "string",
                    "name": "_idAlumno",
                    "type": "string"
                }
            ],
            "name": "pedirRevision",
            "outputs": [],
            "stateMutability": "nonpayable",
            "type": "function"
        },
        {
            "inputs": [],
            "name": "profesor",
            "outputs": [
                {
                    "internalType": "address",
                    "name": "",
                    "type": "address"
                }
            ],
            "stateMutability": "view",
            "type": "function"
        },
        {
            "inputs": [
                {
                    "internalType": "address",
                    "name": "nuevoProfesor",
                    "type": "address"
                }
            ],
            "name": "transferirOwnership",
            "outputs": [],
            "stateMutability": "nonpayable",
            "type": "function"
        },
        {
            "inputs": [
                {
                    "internalType": "string",
                    "name": "_idAlumno",
                    "type": "string"
                }
            ],
            "name": "verDireccion",
            "outputs": [
                {
                    "internalType": "address",
                    "name": "",
                    "type": "address"
                }
            ],
            "stateMutability": "view",
            "type": "function"
        },
        {
            "inputs": [
                {
                    "internalType": "string",
                    "name": "_idAlumno",
                    "type": "string"
                }
            ],
            "name": "verNotas",
            "outputs": [
                {
                    "internalType": "uint256[]",
                    "name": "",
                    "type": "uint256[]"
                }
            ],
            "stateMutability": "view",
            "type": "function"
        },
        {
            "inputs": [],
            "name": "verRevisiones",
            "outputs": [
                {
                    "internalType": "string[]",
                    "name": "",
                    "type": "string[]"
                }
            ],
            "stateMutability": "view",
            "type": "function"
        }
    ],
    "bytecode": "0x608060405234801561001057600080fd5b50336000806101000a81548173ffffffffffffffffffffffffffffffffffffffff021916908373ffffffffffffffffffffffffffffffffffffffff1602179055506113c7806100606000396000f3fe608060405234801561001057600080fd5b50600436106100885760003560e01c8063deafddae1161005b578063deafddae146100ff578063df0965761461012f578063ef0717a11461014d578063fcc136a71461017d57610088565b8063039bbb0e1461008d5780631d3c355c146100a9578063383bebae146100c5578063398dfa79146100e1575b600080fd5b6100a760048036038101906100a29190610a85565b610199565b005b6100c360048036038101906100be9190610ae1565b6102e2565b005b6100df60048036038101906100da9190610b44565b6104a3565b005b6100e96105d4565b6040516100f69190610ce1565b60405180910390f35b61011960048036038101906101149190610d03565b61073b565b6040516101269190610e0a565b60405180910390f35b6101376107d2565b6040516101449190610e3b565b60405180910390f35b61016760048036038101906101629190610d03565b6107f6565b6040516101749190610e3b565b60405180910390f35b61019760048036038101906101929190610d03565b61085e565b005b60008054906101000a900473ffffffffffffffffffffffffffffffffffffffff1673ffffffffffffffffffffffffffffffffffffffff163373ffffffffffffffffffffffffffffffffffffffff1614610227576040517f08c379a000000000000000000000000000000000000000000000000000000000815260040161021e90610ed9565b60405180910390fd5b60008260405160200161023a9190610f35565b604051602081830303815290604052805190602001209050816002600083815260200190815260200160002060006101000a81548173ffffffffffffffffffffffffffffffffffffffff021916908373ffffffffffffffffffffffffffffffffffffffff1602179055507f3c0bd614202ee6275413e15b16001f376b37c226fef275eb113bf7a959a3dd6f81836040516102d5929190610f65565b60405180910390a1505050565b60008054906101000a900473ffffffffffffffffffffffffffffffffffffffff1673ffffffffffffffffffffffffffffffffffffffff163373ffffffffffffffffffffffffffffffffffffffff1614610370576040517f08c379a000000000000000000000000000000000000000000000000000000000815260040161036790610ed9565b60405180910390fd5b600073ffffffffffffffffffffffffffffffffffffffff168173ffffffffffffffffffffffffffffffffffffffff16036103df576040517f08c379a00000000000000000000000000000000000000000000000000000000081526004016103d690611000565b60405180910390fd5b60008060009054906101000a900473ffffffffffffffffffffffffffffffffffffffff169050816000806101000a81548173ffffffffffffffffffffffffffffffffffffffff021916908373ffffffffffffffffffffffffffffffffffffffff1602179055508173ffffffffffffffffffffffffffffffffffffffff168173ffffffffffffffffffffffffffffffffffffffff167f8be0079c531659141344cd1fd0a4f28419497f9722a3daafe3b4186f6b6457e060405160405180910390a35050565b60008054906101000a900473ffffffffffffffffffffffffffffffffffffffff1673ffffffffffffffffffffffffffffffffffffffff163373ffffffffffffffffffffffffffffffffffffffff1614610531576040517f08c379a000000000000000000000000000000000000000000000000000000000815260040161052890610ed9565b60405180910390fd5b6000826040516020016105449190610f35565b604051602081830303815290604052805190602001209050600160008281526020019081526020016000208290806001815401808255809150506001900390600052602060002001600090919091909150557f37a90653d4133bc56bf1a245bf03c82e375eb0ab14c1f2be0f4cd6f0284188a581836040516105c792919061102f565b60405180910390a1505050565b606060008054906101000a900473ffffffffffffffffffffffffffffffffffffffff1673ffffffffffffffffffffffffffffffffffffffff163373ffffffffffffffffffffffffffffffffffffffff1614610664576040517f08c379a000000000000000000000000000000000000000000000000000000000815260040161065b90610ed9565b60405180910390fd5b6003805480602002602001604051908101604052809291908181526020016000905b828210156107325783829060005260206000200180546106a590611087565b80601f01602080910402602001604051908101604052809291908181526020018280546106d190611087565b801561071e5780601f106106f35761010080835404028352916020019161071e565b820191906000526020600020905b81548152906001019060200180831161070157829003601f168201915b505050505081526020019060010190610686565b50505050905090565b60606000826040516020016107509190610f35565b604051602081830303815290604052805190602001209050600160008281526020019081526020016000208054806020026020016040519081016040528092919081815260200182805480156107c557602002820191906000526020600020905b8154815260200190600101908083116107b1575b5050505050915050919050565b60008054906101000a900473ffffffffffffffffffffffffffffffffffffffff1681565b6000808260405160200161080a9190610f35565b6040516020818303038152906040528051906020012090506002600082815260200190815260200160002060009054906101000a900473ffffffffffffffffffffffffffffffffffffffff16915050919050565b6003819080600181540180825580915050600190039060005260206000200160009091909190915090816108929190611264565b507f3d71d23016af440f51ebf35226662057d17c0b28a860c3c74759c36f0ff2e4c1816040516108c2919061136f565b60405180910390a150565b6000604051905090565b600080fd5b600080fd5b600080fd5b600080fd5b6000601f19601f8301169050919050565b7f4e487b7100000000000000000000000000000000000000000000000000000000600052604160045260246000fd5b610934826108eb565b810181811067ffffffffffffffff82111715610953576109526108fc565b5b80604052505050565b60006109666108cd565b9050610972828261092b565b919050565b600067ffffffffffffffff821115610992576109916108fc565b5b61099b826108eb565b9050602081019050919050565b82818337600083830152505050565b60006109ca6109c584610977565b61095c565b9050828152602081018484840111156109e6576109e56108e6565b5b6109f18482856109a8565b509392505050565b600082601f830112610a0e57610a0d6108e1565b5b8135610a1e8482602086016109b7565b91505092915050565b600073ffffffffffffffffffffffffffffffffffffffff82169050919050565b6000610a5282610a27565b9050919050565b610a6281610a47565b8114610a6d57600080fd5b50565b600081359050610a7f81610a59565b92915050565b60008060408385031215610a9c57610a9b6108d7565b5b600083013567ffffffffffffffff811115610aba57610ab96108dc565b5b610ac6858286016109f9565b9250506020610ad785828601610a70565b9150509250929050565b600060208284031215610af757610af66108d7565b5b6000610b0584828501610a70565b91505092915050565b6000819050919050565b610b2181610b0e565b8114610b2c57600080fd5b50565b600081359050610b3e81610b18565b92915050565b60008060408385031215610b5b57610b5a6108d7565b5b600083013567ffffffffffffffff811115610b7957610b786108dc565b5b610b85858286016109f9565b9250506020610b9685828601610b2f565b9150509250929050565b600081519050919050565b600082825260208201905092915050565b6000819050602082019050919050565b600081519050919050565b600082825260208201905092915050565b60005b83811015610c06578082015181840152602081019050610beb565b60008484015250505050565b6000610c1d82610bcc565b610c278185610bd7565b9350610c37818560208601610be8565b610c40816108eb565b840191505092915050565b6000610c578383610c12565b905092915050565b6000602082019050919050565b6000610c7782610ba0565b610c818185610bab565b935083602082028501610c9385610bbc565b8060005b85811015610ccf5784840389528151610cb08582610c4b565b9450610cbb83610c5f565b925060208a01995050600181019050610c97565b50829750879550505050505092915050565b60006020820190508181036000830152610cfb8184610c6c565b905092915050565b600060208284031215610d1957610d186108d7565b5b600082013567ffffffffffffffff811115610d3757610d366108dc565b5b610d43848285016109f9565b91505092915050565b600081519050919050565b600082825260208201905092915050565b6000819050602082019050919050565b610d8181610b0e565b82525050565b6000610d938383610d78565b60208301905092915050565b6000602082019050919050565b6000610db782610d4c565b610dc18185610d57565b9350610dcc83610d68565b8060005b83811015610dfd578151610de48882610d87565b9750610def83610d9f565b925050600181019050610dd0565b5085935050505092915050565b60006020820190508181036000830152610e248184610dac565b905092915050565b610e3581610a47565b82525050565b6000602082019050610e506000830184610e2c565b92915050565b600082825260208201905092915050565b7f4e6f207469656e6573207065726d69736f73207061726120656a65637574617260008201527f20657374612066756e63696f6e2e000000000000000000000000000000000000602082015250565b6000610ec3602e83610e56565b9150610ece82610e67565b604082019050919050565b60006020820190508181036000830152610ef281610eb6565b9050919050565b600081905092915050565b6000610f0f82610bcc565b610f198185610ef9565b9350610f29818560208601610be8565b80840191505092915050565b6000610f418284610f04565b915081905092915050565b6000819050919050565b610f5f81610f4c565b82525050565b6000604082019050610f7a6000830185610f56565b610f876020830184610e2c565b9392505050565b7f4e7565766f2070726f6665736f72206573206c6120646972656363696f6e206360008201527f65726f2e00000000000000000000000000000000000000000000000000000000602082015250565b6000610fea602483610e56565b9150610ff582610f8e565b604082019050919050565b6000602082019050818103600083015261101981610fdd565b9050919050565b61102981610b0e565b82525050565b60006040820190506110446000830185610f56565b6110516020830184611020565b9392505050565b7f4e487b7100000000000000000000000000000000000000000000000000000000600052602260045260246000fd5b6000600282049050600182168061109f57607f821691505b6020821081036110b2576110b1611058565b5b50919050565b60008190508160005260206000209050919050565b60006020601f8301049050919050565b600082821b905092915050565b60006008830261111a7fffffffffffffffffffffffffffffffffffffffffffffffffffffffffffffffff826110dd565b61112486836110dd565b95508019841693508086168417925050509392505050565b6000819050919050565b600061116161115c61115784610b0e565b61113c565b610b0e565b9050919050565b6000819050919050565b61117b83611146565b61118f61118782611168565b8484546110ea565b825550505050565b600090565b6111a4611197565b6111af818484611172565b505050565b5b818110156111d3576111c860008261119c565b6001810190506111b5565b5050565b601f821115611218576111e9816110b8565b6111f2846110cd565b81016020851015611201578190505b61121561120d856110cd565b8301826111b4565b50505b505050565b600082821c905092915050565b600061123b6000198460080261121d565b1980831691505092915050565b6000611254838361122a565b9150826002028217905092915050565b61126d82610bcc565b67ffffffffffffffff811115611286576112856108fc565b5b6112908254611087565b61129b8282856111d7565b600060209050601f8311600181146112ce57600084156112bc578287015190505b6112c68582611248565b86555061132e565b601f1984166112dc866110b8565b60005b82811015611304578489015182556001820191506020850194506020810190506112df565b86831015611321578489015161131d601f89168261122a565b8355505b6001600288020188555050505b505050505050565b600061134182610bcc565b61134b8185610e56565b935061135b818560208601610be8565b611364816108eb565b840191505092915050565b600060208201905081810360008301526113898184611336565b90509291505056fea264697066735822122075f1fb9aab68bfe6807d8b431aa8c838d06106599e2e3835a9eadd148792ddbe64736f6c63430008180033",
    "linkReferences": {},
    "deployedLinkReferences": {}
}