{
  "contracts/GradeTracker.sol": {
    "GradeTracker": {
      "abi": [
        {
          "inputs": [],
          "stateMutability": "nonpayable",
          "type": "constructor"
        },
        {
          "anonymous": false,
          "inputs": [
            {
              "indexed": false,
              "internalType": "string",
              "name": "",
              "type": "string"
            }
          ],
          "name": "ClassNameChanged",
          "type": "event"
        },
        {
          "anonymous": false,
          "inputs": [
            {
              "indexed": false,
              "internalType": "bytes32",
              "name": "",
              "type": "bytes32"
            }
          ],
          "name": "CredentialIssued",
          "type": "event"
        },
        {
          "anonymous": false,
          "inputs": [
            {
              "indexed": false,
              "internalType": "address",
              "name": "",
              "type": "address"
            }
          ],
          "name": "ProfessorChanged",
          "type": "event"
        },
        {
          "anonymous": false,
          "inputs": [
            {
              "indexed": false,
              "internalType": "string",
              "name": "",
              "type": "string"
            }
          ],
          "name": "ReviewEvent",
          "type": "event"
        },
        {
          "anonymous": false,
          "inputs": [
            {
              "indexed": false,
              "internalType": "bytes32",
              "name": "",
              "type": "bytes32"
            }
          ],
          "name": "StudentGraded",
          "type": "event"
        },
        {
          "inputs": [
            {
              "internalType": "string",
              "name": "newClassName",
              "type": "string"
            }
          ],
          "name": "changeClassName",
          "outputs": [],
          "stateMutability": "nonpayable",
          "type": "function"
        },
        {
          "inputs": [
            {
              "internalType": "address",
              "name": "newProfessor",
              "type": "address"
            }
          ],
          "name": "changeProfessor",
          "outputs": [],
          "stateMutability": "nonpayable",
          "type": "function"
        },
        {
          "inputs": [
            {
              "internalType": "string",
              "name": "_studentId",
              "type": "string"
            }
          ],
          "name": "checkIfStudentHasGrade",
          "outputs": [
            {
              "internalType": "bool",
              "name": "",
              "type": "bool"
            }
          ],
          "stateMutability": "view",
          "type": "function"
        },
        {
          "inputs": [],
          "name": "className",
          "outputs": [
            {
              "internalType": "string",
              "name": "",
              "type": "string"
            }
          ],
          "stateMutability": "view",
          "type": "function"
        },
        {
          "inputs": [
            {
              "internalType": "bytes32",
              "name": "",
              "type": "bytes32"
            }
          ],
          "name": "credentials",
          "outputs": [
            {
              "internalType": "bool",
              "name": "",
              "type": "bool"
            }
          ],
          "stateMutability": "view",
          "type": "function"
        },
        {
          "inputs": [
            {
              "internalType": "string",
              "name": "_studentId",
              "type": "string"
            },
            {
              "internalType": "uint256",
              "name": "_grade",
              "type": "uint256"
            }
          ],
          "name": "grade",
          "outputs": [],
          "stateMutability": "nonpayable",
          "type": "function"
        },
        {
          "inputs": [
            {
              "internalType": "string",
              "name": "_studentId",
              "type": "string"
            }
          ],
          "name": "hasCredential",
          "outputs": [
            {
              "internalType": "bool",
              "name": "",
              "type": "bool"
            }
          ],
          "stateMutability": "view",
          "type": "function"
        },
        {
          "inputs": [
            {
              "internalType": "string",
              "name": "_studentId",
              "type": "string"
            }
          ],
          "name": "issueCredential",
          "outputs": [],
          "stateMutability": "nonpayable",
          "type": "function"
        },
        {
          "inputs": [],
          "name": "professor",
          "outputs": [
            {
              "internalType": "address",
              "name": "",
              "type": "address"
            }
          ],
          "stateMutability": "view",
          "type": "function"
        },
        {
          "inputs": [
            {
              "internalType": "string",
              "name": "_studentId",
              "type": "string"
            }
          ],
          "name": "requestReview",
          "outputs": [],
          "stateMutability": "nonpayable",
          "type": "function"
        },
        {
          "inputs": [
            {
              "internalType": "string",
              "name": "_studentId",
              "type": "string"
            }
          ],
          "name": "viewGrades",
          "outputs": [
            {
              "internalType": "uint256",
              "name": "",
              "type": "uint256"
            }
          ],
          "stateMutability": "view",
          "type": "function"
        },
        {
          "inputs": [],
          "name": "viewReviews",
          "outputs": [
            {
              "internalType": "string[]",
              "name": "",
              "type": "string[]"
            }
          ],
          "stateMutability": "view",
          "type": "function"
        }
      ],
      "evm": {
        "bytecode": {
          "linkReferences": {},
          "object": "60806040523480156200001157600080fd5b50336000806101000a81548173ffffffffffffffffffffffffffffffffffffffff021916908373ffffffffffffffffffffffffffffffffffffffff1602179055506040518060400160405280600781526020017f64656661756c74000000000000000000000000000000000000000000000000008152506001908162000098919062000319565b5062000400565b600081519050919050565b7f4e487b7100000000000000000000000000000000000000000000000000000000600052604160045260246000fd5b7f4e487b7100000000000000000000000000000000000000000000000000000000600052602260045260246000fd5b600060028204905060018216806200012157607f821691505b602082108103620001375762000136620000d9565b5b50919050565b60008190508160005260206000209050919050565b60006020601f8301049050919050565b600082821b905092915050565b600060088302620001a17fffffffffffffffffffffffffffffffffffffffffffffffffffffffffffffffff8262000162565b620001ad868362000162565b95508019841693508086168417925050509392505050565b6000819050919050565b6000819050919050565b6000620001fa620001f4620001ee84620001c5565b620001cf565b620001c5565b9050919050565b6000819050919050565b6200021683620001d9565b6200022e620002258262000201565b8484546200016f565b825550505050565b600090565b6200024562000236565b620002528184846200020b565b505050565b5b818110156200027a576200026e6000826200023b565b60018101905062000258565b5050565b601f821115620002c95762000293816200013d565b6200029e8462000152565b81016020851015620002ae578190505b620002c6620002bd8562000152565b83018262000257565b50505b505050565b600082821c905092915050565b6000620002ee60001984600802620002ce565b1980831691505092915050565b6000620003098383620002db565b9150826002028217905092915050565b62000324826200009f565b67ffffffffffffffff81111562000340576200033f620000aa565b5b6200034c825462000108565b620003598282856200027e565b600060209050601f8311600181146200039157600084156200037c578287015190505b620003888582620002fb565b865550620003f8565b601f198416620003a1866200013d565b60005b82811015620003cb57848901518255600182019150602085019450602081019050620003a4565b86831015620003eb5784890151620003e7601f891682620002db565b8355505b6001600288020188555050505b505050505050565b6117ba80620004106000396000f3fe608060405234801561001057600080fd5b50600436106100b35760003560e01c8063811f948711610071578063811f94871461018e5780639c920f8c146101aa578063d4807bf0146101da578063e75e233c146101f6578063efa1b45d14610226578063f750301d14610242576100b3565b8062c51f8c146100b8578063020ef95c146100d657806316708cc2146100f4578063299d03481461011057806339d789c2146101405780635113940d14610170575b600080fd5b6100c061025e565b6040516100cd9190610c63565b60405180910390f35b6100de6102ec565b6040516100eb9190610d91565b60405180910390f35b61010e60048036038101906101099190610f32565b610455565b005b61012a60048036038101906101259190610fc4565b610564565b604051610137919061100c565b60405180910390f35b61015a60048036038101906101559190611027565b610584565b604051610167919061107f565b60405180910390f35b610178610628565b60405161018591906110db565b60405180910390f35b6101a860048036038101906101a39190611027565b61064c565b005b6101c460048036038101906101bf9190611027565b61081a565b6040516101d1919061100c565b60405180910390f35b6101f460048036038101906101ef9190611027565b610866565b005b610210600480360381019061020b9190611027565b6108d5565b60405161021d919061100c565b60405180910390f35b610240600480360381019061023b9190611027565b610980565b005b61025c60048036038101906102579190611122565b610a5a565b005b6001805461026b9061117e565b80601f01602080910402602001604051908101604052809291908181526020018280546102979061117e565b80156102e45780601f106102b9576101008083540402835291602001916102e4565b820191906000526020600020905b8154815290600101906020018083116102c757829003601f168201915b505050505081565b60603360008054906101000a900473ffffffffffffffffffffffffffffffffffffffff1673ffffffffffffffffffffffffffffffffffffffff168173ffffffffffffffffffffffffffffffffffffffff161461037d576040517f08c379a000000000000000000000000000000000000000000000000000000000815260040161037490611221565b60405180910390fd5b6003805480602002602001604051908101604052809291908181526020016000905b8282101561044b5783829060005260206000200180546103be9061117e565b80601f01602080910402602001604051908101604052809291908181526020018280546103ea9061117e565b80156104375780601f1061040c57610100808354040283529160200191610437565b820191906000526020600020905b81548152906001019060200180831161041a57829003601f168201915b50505050508152602001906001019061039f565b5050505091505090565b3360008054906101000a900473ffffffffffffffffffffffffffffffffffffffff1673ffffffffffffffffffffffffffffffffffffffff168173ffffffffffffffffffffffffffffffffffffffff16146104e4576040517f08c379a00000000000000000000000000000000000000000000000000000000081526004016104db90611221565b60405180910390fd5b6000836040516020016104f7919061127d565b6040516020818303038152906040528051906020012090508260026000838152602001908152602001600020819055507f875595343282db0f07fcf1e4817d002b9a0f2e6ecbb1745ec307a9fd07eb3da98160405161055691906112a3565b60405180910390a150505050565b60046020528060005260406000206000915054906101000a900460ff1681565b60008082604051602001610598919061127d565b6040516020818303038152906040528051906020012090506000600260008381526020019081526020016000205403610606576040517f08c379a00000000000000000000000000000000000000000000000000000000081526004016105fd90611330565b60405180910390fd5b6000600260008381526020019081526020016000205490508092505050919050565b60008054906101000a900473ffffffffffffffffffffffffffffffffffffffff1681565b3360008054906101000a900473ffffffffffffffffffffffffffffffffffffffff1673ffffffffffffffffffffffffffffffffffffffff168173ffffffffffffffffffffffffffffffffffffffff16146106db576040517f08c379a00000000000000000000000000000000000000000000000000000000081526004016106d290611221565b60405180910390fd5b6000826040516020016106ee919061127d565b604051602081830303815290604052805190602001209050600060026000838152602001908152602001600020540361075c576040517f08c379a0000000000000000000000000000000000000000000000000000000008152600401610753906113c2565b60405180910390fd5b60466002600083815260200190815260200160002054116107b2576040517f08c379a00000000000000000000000000000000000000000000000000000000081526004016107a990611454565b60405180910390fd5b60016004600083815260200190815260200160002060006101000a81548160ff0219169083151502179055507f124f13dfbda76d1ed661f83b31b07d4a5a48c72bea1d363f2ca5df4108316fa98160405161080d91906112a3565b60405180910390a1505050565b6000808260405160200161082e919061127d565b604051602081830303815290604052805190602001209050600060026000838152602001908152602001600020541415915050919050565b60038190806001815401808255809150506001900390600052602060002001600090919091909150908161089a9190611620565b507f6db0ba2c4196cbcd5633309fa90850c55b5bca0f200905d235db115d13b03c54816040516108ca9190610c63565b60405180910390a150565b600080826040516020016108e9919061127d565b6040516020818303038152906040528051906020012090506000600260008381526020019081526020016000205403610957576040517f08c379a000000000000000000000000000000000000000000000000000000000815260040161094e906113c2565b60405180910390fd5b6004600082815260200190815260200160002060009054906101000a900460ff16915050919050565b3360008054906101000a900473ffffffffffffffffffffffffffffffffffffffff1673ffffffffffffffffffffffffffffffffffffffff168173ffffffffffffffffffffffffffffffffffffffff1614610a0f576040517f08c379a0000000000000000000000000000000000000000000000000000000008152600401610a0690611221565b60405180910390fd5b8160019081610a1e9190611620565b507ff91803795335bd89cfe30ece2ce1937e0648b3e8a1923df79fffaee1a819833e82604051610a4e9190610c63565b60405180910390a15050565b3360008054906101000a900473ffffffffffffffffffffffffffffffffffffffff1673ffffffffffffffffffffffffffffffffffffffff168173ffffffffffffffffffffffffffffffffffffffff1614610ae9576040517f08c379a0000000000000000000000000000000000000000000000000000000008152600401610ae090611221565b60405180910390fd5b600073ffffffffffffffffffffffffffffffffffffffff168273ffffffffffffffffffffffffffffffffffffffff1603610b58576040517f08c379a0000000000000000000000000000000000000000000000000000000008152600401610b4f90611764565b60405180910390fd5b816000806101000a81548173ffffffffffffffffffffffffffffffffffffffff021916908373ffffffffffffffffffffffffffffffffffffffff1602179055507f151c4da579f95e380942d07c438e19f2f7a92ac9b841b7c433b545349ed79f6482604051610bc791906110db565b60405180910390a15050565b600081519050919050565b600082825260208201905092915050565b60005b83811015610c0d578082015181840152602081019050610bf2565b60008484015250505050565b6000601f19601f8301169050919050565b6000610c3582610bd3565b610c3f8185610bde565b9350610c4f818560208601610bef565b610c5881610c19565b840191505092915050565b60006020820190508181036000830152610c7d8184610c2a565b905092915050565b600081519050919050565b600082825260208201905092915050565b6000819050602082019050919050565b600082825260208201905092915050565b6000610ccd82610bd3565b610cd78185610cb1565b9350610ce7818560208601610bef565b610cf081610c19565b840191505092915050565b6000610d078383610cc2565b905092915050565b6000602082019050919050565b6000610d2782610c85565b610d318185610c90565b935083602082028501610d4385610ca1565b8060005b85811015610d7f5784840389528151610d608582610cfb565b9450610d6b83610d0f565b925060208a01995050600181019050610d47565b50829750879550505050505092915050565b60006020820190508181036000830152610dab8184610d1c565b905092915050565b6000604051905090565b600080fd5b600080fd5b600080fd5b600080fd5b7f4e487b7100000000000000000000000000000000000000000000000000000000600052604160045260246000fd5b610e0982610c19565b810181811067ffffffffffffffff82111715610e2857610e27610dd1565b5b80604052505050565b6000610e3b610db3565b9050610e478282610e00565b919050565b600067ffffffffffffffff821115610e6757610e66610dd1565b5b610e7082610c19565b9050602081019050919050565b82818337600083830152505050565b6000610e9f610e9a84610e4c565b610e31565b905082815260208101848484011115610ebb57610eba610dcc565b5b610ec6848285610e7d565b509392505050565b600082601f830112610ee357610ee2610dc7565b5b8135610ef3848260208601610e8c565b91505092915050565b6000819050919050565b610f0f81610efc565b8114610f1a57600080fd5b50565b600081359050610f2c81610f06565b92915050565b60008060408385031215610f4957610f48610dbd565b5b600083013567ffffffffffffffff811115610f6757610f66610dc2565b5b610f7385828601610ece565b9250506020610f8485828601610f1d565b9150509250929050565b6000819050919050565b610fa181610f8e565b8114610fac57600080fd5b50565b600081359050610fbe81610f98565b92915050565b600060208284031215610fda57610fd9610dbd565b5b6000610fe884828501610faf565b91505092915050565b60008115159050919050565b61100681610ff1565b82525050565b60006020820190506110216000830184610ffd565b92915050565b60006020828403121561103d5761103c610dbd565b5b600082013567ffffffffffffffff81111561105b5761105a610dc2565b5b61106784828501610ece565b91505092915050565b61107981610efc565b82525050565b60006020820190506110946000830184611070565b92915050565b600073ffffffffffffffffffffffffffffffffffffffff82169050919050565b60006110c58261109a565b9050919050565b6110d5816110ba565b82525050565b60006020820190506110f060008301846110cc565b92915050565b6110ff816110ba565b811461110a57600080fd5b50565b60008135905061111c816110f6565b92915050565b60006020828403121561113857611137610dbd565b5b60006111468482850161110d565b91505092915050565b7f4e487b7100000000000000000000000000000000000000000000000000000000600052602260045260246000fd5b6000600282049050600182168061119657607f821691505b6020821081036111a9576111a861114f565b5b50919050565b7f596f7520646f206e6f742068617665207065726d697373696f6e20746f20657860008201527f656375746520746869732066756e6374696f6e2e000000000000000000000000602082015250565b600061120b603483610bde565b9150611216826111af565b604082019050919050565b6000602082019050818103600083015261123a816111fe565b9050919050565b600081905092915050565b600061125782610bd3565b6112618185611241565b9350611271818560208601610bef565b80840191505092915050565b6000611289828461124c565b915081905092915050565b61129d81610f8e565b82525050565b60006020820190506112b86000830184611294565b92915050565b7f53747564656e7420646f65736e2774207365656d20746f20686176652061206760008201527f7261646500000000000000000000000000000000000000000000000000000000602082015250565b600061131a602483610bde565b9150611325826112be565b604082019050919050565b600060208201905081810360008301526113498161130d565b9050919050565b7f5468652073747564656e7420686173206e6f206772616465732072656769737460008201527f6572656400000000000000000000000000000000000000000000000000000000602082015250565b60006113ac602483610bde565b91506113b782611350565b604082019050919050565b600060208201905081810360008301526113db8161139f565b9050919050565b7f4772616465206973206e6f74206869676820656e6f75676820746f206973737560008201527f6520612063726564656e7469616c2e0000000000000000000000000000000000602082015250565b600061143e602f83610bde565b9150611449826113e2565b604082019050919050565b6000602082019050818103600083015261146d81611431565b9050919050565b60008190508160005260206000209050919050565b60006020601f8301049050919050565b600082821b905092915050565b6000600883026114d67fffffffffffffffffffffffffffffffffffffffffffffffffffffffffffffffff82611499565b6114e08683611499565b95508019841693508086168417925050509392505050565b6000819050919050565b600061151d61151861151384610efc565b6114f8565b610efc565b9050919050565b6000819050919050565b61153783611502565b61154b61154382611524565b8484546114a6565b825550505050565b600090565b611560611553565b61156b81848461152e565b505050565b5b8181101561158f57611584600082611558565b600181019050611571565b5050565b601f8211156115d4576115a581611474565b6115ae84611489565b810160208510156115bd578190505b6115d16115c985611489565b830182611570565b50505b505050565b600082821c905092915050565b60006115f7600019846008026115d9565b1980831691505092915050565b600061161083836115e6565b9150826002028217905092915050565b61162982610bd3565b67ffffffffffffffff81111561164257611641610dd1565b5b61164c825461117e565b611657828285611593565b600060209050601f83116001811461168a5760008415611678578287015190505b6116828582611604565b8655506116ea565b601f19841661169886611474565b60005b828110156116c05784890151825560018201915060208501945060208101905061169b565b868310156116dd57848901516116d9601f8916826115e6565b8355505b6001600288020188555050505b505050505050565b7f4e65772070726f666573736f7220616464726573732063616e6e6f742062652060008201527f746865207a65726f20616464726573732e000000000000000000000000000000602082015250565b600061174e603183610bde565b9150611759826116f2565b604082019050919050565b6000602082019050818103600083015261177d81611741565b905091905056fea264697066735822122077c0115549cd7ae85118e83e387ab0ffebc11b32d3e58e11a3d1ed873b19f57d64736f6c63430008180033",
          "opcodes": "PUSH1 0x80 PUSH1 0x40 MSTORE CALLVALUE DUP1 ISZERO PUSH3 0x11 JUMPI PUSH1 0x0 DUP1 REVERT JUMPDEST POP CALLER PUSH1 0x0 DUP1 PUSH2 0x100 EXP DUP2 SLOAD DUP2 PUSH20 0xFFFFFFFFFFFFFFFFFFFFFFFFFFFFFFFFFFFFFFFF MUL NOT AND SWAP1 DUP4 PUSH20 0xFFFFFFFFFFFFFFFFFFFFFFFFFFFFFFFFFFFFFFFF AND MUL OR SWAP1 SSTORE POP PUSH1 0x40 MLOAD DUP1 PUSH1 0x40 ADD PUSH1 0x40 MSTORE DUP1 PUSH1 0x7 DUP2 MSTORE PUSH1 0x20 ADD PUSH32 0x64656661756C7400000000000000000000000000000000000000000000000000 DUP2 MSTORE POP PUSH1 0x1 SWAP1 DUP2 PUSH3 0x98 SWAP2 SWAP1 PUSH3 0x319 JUMP JUMPDEST POP PUSH3 0x400 JUMP JUMPDEST PUSH1 0x0 DUP2 MLOAD SWAP1 POP SWAP2 SWAP1 POP JUMP JUMPDEST PUSH32 0x4E487B7100000000000000000000000000000000000000000000000000000000 PUSH1 0x0 MSTORE PUSH1 0x41 PUSH1 0x4 MSTORE PUSH1 0x24 PUSH1 0x0 REVERT JUMPDEST PUSH32 0x4E487B7100000000000000000000000000000000000000000000000000000000 PUSH1 0x0 MSTORE PUSH1 0x22 PUSH1 0x4 MSTORE PUSH1 0x24 PUSH1 0x0 REVERT JUMPDEST PUSH1 0x0 PUSH1 0x2 DUP3 DIV SWAP1 POP PUSH1 0x1 DUP3 AND DUP1 PUSH3 0x121 JUMPI PUSH1 0x7F DUP3 AND SWAP2 POP JUMPDEST PUSH1 0x20 DUP3 LT DUP2 SUB PUSH3 0x137 JUMPI PUSH3 0x136 PUSH3 0xD9 JUMP JUMPDEST JUMPDEST POP SWAP2 SWAP1 POP JUMP JUMPDEST PUSH1 0x0 DUP2 SWAP1 POP DUP2 PUSH1 0x0 MSTORE PUSH1 0x20 PUSH1 0x0 KECCAK256 SWAP1 POP SWAP2 SWAP1 POP JUMP JUMPDEST PUSH1 0x0 PUSH1 0x20 PUSH1 0x1F DUP4 ADD DIV SWAP1 POP SWAP2 SWAP1 POP JUMP JUMPDEST PUSH1 0x0 DUP3 DUP3 SHL SWAP1 POP SWAP3 SWAP2 POP POP JUMP JUMPDEST PUSH1 0x0 PUSH1 0x8 DUP4 MUL PUSH3 0x1A1 PUSH32 0xFFFFFFFFFFFFFFFFFFFFFFFFFFFFFFFFFFFFFFFFFFFFFFFFFFFFFFFFFFFFFFFF DUP3 PUSH3 0x162 JUMP JUMPDEST PUSH3 0x1AD DUP7 DUP4 PUSH3 0x162 JUMP JUMPDEST SWAP6 POP DUP1 NOT DUP5 AND SWAP4 POP DUP1 DUP7 AND DUP5 OR SWAP3 POP POP POP SWAP4 SWAP3 POP POP POP JUMP JUMPDEST PUSH1 0x0 DUP2 SWAP1 POP SWAP2 SWAP1 POP JUMP JUMPDEST PUSH1 0x0 DUP2 SWAP1 POP SWAP2 SWAP1 POP JUMP JUMPDEST PUSH1 0x0 PUSH3 0x1FA PUSH3 0x1F4 PUSH3 0x1EE DUP5 PUSH3 0x1C5 JUMP JUMPDEST PUSH3 0x1CF JUMP JUMPDEST PUSH3 0x1C5 JUMP JUMPDEST SWAP1 POP SWAP2 SWAP1 POP JUMP JUMPDEST PUSH1 0x0 DUP2 SWAP1 POP SWAP2 SWAP1 POP JUMP JUMPDEST PUSH3 0x216 DUP4 PUSH3 0x1D9 JUMP JUMPDEST PUSH3 0x22E PUSH3 0x225 DUP3 PUSH3 0x201 JUMP JUMPDEST DUP5 DUP5 SLOAD PUSH3 0x16F JUMP JUMPDEST DUP3 SSTORE POP POP POP POP JUMP JUMPDEST PUSH1 0x0 SWAP1 JUMP JUMPDEST PUSH3 0x245 PUSH3 0x236 JUMP JUMPDEST PUSH3 0x252 DUP2 DUP5 DUP5 PUSH3 0x20B JUMP JUMPDEST POP POP POP JUMP JUMPDEST JUMPDEST DUP2 DUP2 LT ISZERO PUSH3 0x27A JUMPI PUSH3 0x26E PUSH1 0x0 DUP3 PUSH3 0x23B JUMP JUMPDEST PUSH1 0x1 DUP2 ADD SWAP1 POP PUSH3 0x258 JUMP JUMPDEST POP POP JUMP JUMPDEST PUSH1 0x1F DUP3 GT ISZERO PUSH3 0x2C9 JUMPI PUSH3 0x293 DUP2 PUSH3 0x13D JUMP JUMPDEST PUSH3 0x29E DUP5 PUSH3 0x152 JUMP JUMPDEST DUP2 ADD PUSH1 0x20 DUP6 LT ISZERO PUSH3 0x2AE JUMPI DUP2 SWAP1 POP JUMPDEST PUSH3 0x2C6 PUSH3 0x2BD DUP6 PUSH3 0x152 JUMP JUMPDEST DUP4 ADD DUP3 PUSH3 0x257 JUMP JUMPDEST POP POP JUMPDEST POP POP POP JUMP JUMPDEST PUSH1 0x0 DUP3 DUP3 SHR SWAP1 POP SWAP3 SWAP2 POP POP JUMP JUMPDEST PUSH1 0x0 PUSH3 0x2EE PUSH1 0x0 NOT DUP5 PUSH1 0x8 MUL PUSH3 0x2CE JUMP JUMPDEST NOT DUP1 DUP4 AND SWAP2 POP POP SWAP3 SWAP2 POP POP JUMP JUMPDEST PUSH1 0x0 PUSH3 0x309 DUP4 DUP4 PUSH3 0x2DB JUMP JUMPDEST SWAP2 POP DUP3 PUSH1 0x2 MUL DUP3 OR SWAP1 POP SWAP3 SWAP2 POP POP JUMP JUMPDEST PUSH3 0x324 DUP3 PUSH3 0x9F JUMP JUMPDEST PUSH8 0xFFFFFFFFFFFFFFFF DUP2 GT ISZERO PUSH3 0x340 JUMPI PUSH3 0x33F PUSH3 0xAA JUMP JUMPDEST JUMPDEST PUSH3 0x34C DUP3 SLOAD PUSH3 0x108 JUMP JUMPDEST PUSH3 0x359 DUP3 DUP3 DUP6 PUSH3 0x27E JUMP JUMPDEST PUSH1 0x0 PUSH1 0x20 SWAP1 POP PUSH1 0x1F DUP4 GT PUSH1 0x1 DUP2 EQ PUSH3 0x391 JUMPI PUSH1 0x0 DUP5 ISZERO PUSH3 0x37C JUMPI DUP3 DUP8 ADD MLOAD SWAP1 POP JUMPDEST PUSH3 0x388 DUP6 DUP3 PUSH3 0x2FB JUMP JUMPDEST DUP7 SSTORE POP PUSH3 0x3F8 JUMP JUMPDEST PUSH1 0x1F NOT DUP5 AND PUSH3 0x3A1 DUP7 PUSH3 0x13D JUMP JUMPDEST PUSH1 0x0 JUMPDEST DUP3 DUP2 LT ISZERO PUSH3 0x3CB JUMPI DUP5 DUP10 ADD MLOAD DUP3 SSTORE PUSH1 0x1 DUP3 ADD SWAP2 POP PUSH1 0x20 DUP6 ADD SWAP5 POP PUSH1 0x20 DUP2 ADD SWAP1 POP PUSH3 0x3A4 JUMP JUMPDEST DUP7 DUP4 LT ISZERO PUSH3 0x3EB JUMPI DUP5 DUP10 ADD MLOAD PUSH3 0x3E7 PUSH1 0x1F DUP10 AND DUP3 PUSH3 0x2DB JUMP JUMPDEST DUP4 SSTORE POP JUMPDEST PUSH1 0x1 PUSH1 0x2 DUP9 MUL ADD DUP9 SSTORE POP POP POP JUMPDEST POP POP POP POP POP POP JUMP JUMPDEST PUSH2 0x17BA DUP1 PUSH3 0x410 PUSH1 0x0 CODECOPY PUSH1 0x0 RETURN INVALID PUSH1 0x80 PUSH1 0x40 MSTORE CALLVALUE DUP1 ISZERO PUSH2 0x10 JUMPI PUSH1 0x0 DUP1 REVERT JUMPDEST POP PUSH1 0x4 CALLDATASIZE LT PUSH2 0xB3 JUMPI PUSH1 0x0 CALLDATALOAD PUSH1 0xE0 SHR DUP1 PUSH4 0x811F9487 GT PUSH2 0x71 JUMPI DUP1 PUSH4 0x811F9487 EQ PUSH2 0x18E JUMPI DUP1 PUSH4 0x9C920F8C EQ PUSH2 0x1AA JUMPI DUP1 PUSH4 0xD4807BF0 EQ PUSH2 0x1DA JUMPI DUP1 PUSH4 0xE75E233C EQ PUSH2 0x1F6 JUMPI DUP1 PUSH4 0xEFA1B45D EQ PUSH2 0x226 JUMPI DUP1 PUSH4 0xF750301D EQ PUSH2 0x242 JUMPI PUSH2 0xB3 JUMP JUMPDEST DUP1 PUSH3 0xC51F8C EQ PUSH2 0xB8 JUMPI DUP1 PUSH4 0x20EF95C EQ PUSH2 0xD6 JUMPI DUP1 PUSH4 0x16708CC2 EQ PUSH2 0xF4 JUMPI DUP1 PUSH4 0x299D0348 EQ PUSH2 0x110 JUMPI DUP1 PUSH4 0x39D789C2 EQ PUSH2 0x140 JUMPI DUP1 PUSH4 0x5113940D EQ PUSH2 0x170 JUMPI JUMPDEST PUSH1 0x0 DUP1 REVERT JUMPDEST PUSH2 0xC0 PUSH2 0x25E JUMP JUMPDEST PUSH1 0x40 MLOAD PUSH2 0xCD SWAP2 SWAP1 PUSH2 0xC63 JUMP JUMPDEST PUSH1 0x40 MLOAD DUP1 SWAP2 SUB SWAP1 RETURN JUMPDEST PUSH2 0xDE PUSH2 0x2EC JUMP JUMPDEST PUSH1 0x40 MLOAD PUSH2 0xEB SWAP2 SWAP1 PUSH2 0xD91 JUMP JUMPDEST PUSH1 0x40 MLOAD DUP1 SWAP2 SUB SWAP1 RETURN JUMPDEST PUSH2 0x10E PUSH1 0x4 DUP1 CALLDATASIZE SUB DUP2 ADD SWAP1 PUSH2 0x109 SWAP2 SWAP1 PUSH2 0xF32 JUMP JUMPDEST PUSH2 0x455 JUMP JUMPDEST STOP JUMPDEST PUSH2 0x12A PUSH1 0x4 DUP1 CALLDATASIZE SUB DUP2 ADD SWAP1 PUSH2 0x125 SWAP2 SWAP1 PUSH2 0xFC4 JUMP JUMPDEST PUSH2 0x564 JUMP JUMPDEST PUSH1 0x40 MLOAD PUSH2 0x137 SWAP2 SWAP1 PUSH2 0x100C JUMP JUMPDEST PUSH1 0x40 MLOAD DUP1 SWAP2 SUB SWAP1 RETURN JUMPDEST PUSH2 0x15A PUSH1 0x4 DUP1 CALLDATASIZE SUB DUP2 ADD SWAP1 PUSH2 0x155 SWAP2 SWAP1 PUSH2 0x1027 JUMP JUMPDEST PUSH2 0x584 JUMP JUMPDEST PUSH1 0x40 MLOAD PUSH2 0x167 SWAP2 SWAP1 PUSH2 0x107F JUMP JUMPDEST PUSH1 0x40 MLOAD DUP1 SWAP2 SUB SWAP1 RETURN JUMPDEST PUSH2 0x178 PUSH2 0x628 JUMP JUMPDEST PUSH1 0x40 MLOAD PUSH2 0x185 SWAP2 SWAP1 PUSH2 0x10DB JUMP JUMPDEST PUSH1 0x40 MLOAD DUP1 SWAP2 SUB SWAP1 RETURN JUMPDEST PUSH2 0x1A8 PUSH1 0x4 DUP1 CALLDATASIZE SUB DUP2 ADD SWAP1 PUSH2 0x1A3 SWAP2 SWAP1 PUSH2 0x1027 JUMP JUMPDEST PUSH2 0x64C JUMP JUMPDEST STOP JUMPDEST PUSH2 0x1C4 PUSH1 0x4 DUP1 CALLDATASIZE SUB DUP2 ADD SWAP1 PUSH2 0x1BF SWAP2 SWAP1 PUSH2 0x1027 JUMP JUMPDEST PUSH2 0x81A JUMP JUMPDEST PUSH1 0x40 MLOAD PUSH2 0x1D1 SWAP2 SWAP1 PUSH2 0x100C JUMP JUMPDEST PUSH1 0x40 MLOAD DUP1 SWAP2 SUB SWAP1 RETURN JUMPDEST PUSH2 0x1F4 PUSH1 0x4 DUP1 CALLDATASIZE SUB DUP2 ADD SWAP1 PUSH2 0x1EF SWAP2 SWAP1 PUSH2 0x1027 JUMP JUMPDEST PUSH2 0x866 JUMP JUMPDEST STOP JUMPDEST PUSH2 0x210 PUSH1 0x4 DUP1 CALLDATASIZE SUB DUP2 ADD SWAP1 PUSH2 0x20B SWAP2 SWAP1 PUSH2 0x1027 JUMP JUMPDEST PUSH2 0x8D5 JUMP JUMPDEST PUSH1 0x40 MLOAD PUSH2 0x21D SWAP2 SWAP1 PUSH2 0x100C JUMP JUMPDEST PUSH1 0x40 MLOAD DUP1 SWAP2 SUB SWAP1 RETURN JUMPDEST PUSH2 0x240 PUSH1 0x4 DUP1 CALLDATASIZE SUB DUP2 ADD SWAP1 PUSH2 0x23B SWAP2 SWAP1 PUSH2 0x1027 JUMP JUMPDEST PUSH2 0x980 JUMP JUMPDEST STOP JUMPDEST PUSH2 0x25C PUSH1 0x4 DUP1 CALLDATASIZE SUB DUP2 ADD SWAP1 PUSH2 0x257 SWAP2 SWAP1 PUSH2 0x1122 JUMP JUMPDEST PUSH2 0xA5A JUMP JUMPDEST STOP JUMPDEST PUSH1 0x1 DUP1 SLOAD PUSH2 0x26B SWAP1 PUSH2 0x117E JUMP JUMPDEST DUP1 PUSH1 0x1F ADD PUSH1 0x20 DUP1 SWAP2 DIV MUL PUSH1 0x20 ADD PUSH1 0x40 MLOAD SWAP1 DUP2 ADD PUSH1 0x40 MSTORE DUP1 SWAP3 SWAP2 SWAP1 DUP2 DUP2 MSTORE PUSH1 0x20 ADD DUP3 DUP1 SLOAD PUSH2 0x297 SWAP1 PUSH2 0x117E JUMP JUMPDEST DUP1 ISZERO PUSH2 0x2E4 JUMPI DUP1 PUSH1 0x1F LT PUSH2 0x2B9 JUMPI PUSH2 0x100 DUP1 DUP4 SLOAD DIV MUL DUP4 MSTORE SWAP2 PUSH1 0x20 ADD SWAP2 PUSH2 0x2E4 JUMP JUMPDEST DUP3 ADD SWAP2 SWAP1 PUSH1 0x0 MSTORE PUSH1 0x20 PUSH1 0x0 KECCAK256 SWAP1 JUMPDEST DUP2 SLOAD DUP2 MSTORE SWAP1 PUSH1 0x1 ADD SWAP1 PUSH1 0x20 ADD DUP1 DUP4 GT PUSH2 0x2C7 JUMPI DUP3 SWAP1 SUB PUSH1 0x1F AND DUP3 ADD SWAP2 JUMPDEST POP POP POP POP POP DUP2 JUMP JUMPDEST PUSH1 0x60 CALLER PUSH1 0x0 DUP1 SLOAD SWAP1 PUSH2 0x100 EXP SWAP1 DIV PUSH20 0xFFFFFFFFFFFFFFFFFFFFFFFFFFFFFFFFFFFFFFFF AND PUSH20 0xFFFFFFFFFFFFFFFFFFFFFFFFFFFFFFFFFFFFFFFF AND DUP2 PUSH20 0xFFFFFFFFFFFFFFFFFFFFFFFFFFFFFFFFFFFFFFFF AND EQ PUSH2 0x37D JUMPI PUSH1 0x40 MLOAD PUSH32 0x8C379A000000000000000000000000000000000000000000000000000000000 DUP2 MSTORE PUSH1 0x4 ADD PUSH2 0x374 SWAP1 PUSH2 0x1221 JUMP JUMPDEST PUSH1 0x40 MLOAD DUP1 SWAP2 SUB SWAP1 REVERT JUMPDEST PUSH1 0x3 DUP1 SLOAD DUP1 PUSH1 0x20 MUL PUSH1 0x20 ADD PUSH1 0x40 MLOAD SWAP1 DUP2 ADD PUSH1 0x40 MSTORE DUP1 SWAP3 SWAP2 SWAP1 DUP2 DUP2 MSTORE PUSH1 0x20 ADD PUSH1 0x0 SWAP1 JUMPDEST DUP3 DUP3 LT ISZERO PUSH2 0x44B JUMPI DUP4 DUP3 SWAP1 PUSH1 0x0 MSTORE PUSH1 0x20 PUSH1 0x0 KECCAK256 ADD DUP1 SLOAD PUSH2 0x3BE SWAP1 PUSH2 0x117E JUMP JUMPDEST DUP1 PUSH1 0x1F ADD PUSH1 0x20 DUP1 SWAP2 DIV MUL PUSH1 0x20 ADD PUSH1 0x40 MLOAD SWAP1 DUP2 ADD PUSH1 0x40 MSTORE DUP1 SWAP3 SWAP2 SWAP1 DUP2 DUP2 MSTORE PUSH1 0x20 ADD DUP3 DUP1 SLOAD PUSH2 0x3EA SWAP1 PUSH2 0x117E JUMP JUMPDEST DUP1 ISZERO PUSH2 0x437 JUMPI DUP1 PUSH1 0x1F LT PUSH2 0x40C JUMPI PUSH2 0x100 DUP1 DUP4 SLOAD DIV MUL DUP4 MSTORE SWAP2 PUSH1 0x20 ADD SWAP2 PUSH2 0x437 JUMP JUMPDEST DUP3 ADD SWAP2 SWAP1 PUSH1 0x0 MSTORE PUSH1 0x20 PUSH1 0x0 KECCAK256 SWAP1 JUMPDEST DUP2 SLOAD DUP2 MSTORE SWAP1 PUSH1 0x1 ADD SWAP1 PUSH1 0x20 ADD DUP1 DUP4 GT PUSH2 0x41A JUMPI DUP3 SWAP1 SUB PUSH1 0x1F AND DUP3 ADD SWAP2 JUMPDEST POP POP POP POP POP DUP2 MSTORE PUSH1 0x20 ADD SWAP1 PUSH1 0x1 ADD SWAP1 PUSH2 0x39F JUMP JUMPDEST POP POP POP POP SWAP2 POP POP SWAP1 JUMP JUMPDEST CALLER PUSH1 0x0 DUP1 SLOAD SWAP1 PUSH2 0x100 EXP SWAP1 DIV PUSH20 0xFFFFFFFFFFFFFFFFFFFFFFFFFFFFFFFFFFFFFFFF AND PUSH20 0xFFFFFFFFFFFFFFFFFFFFFFFFFFFFFFFFFFFFFFFF AND DUP2 PUSH20 0xFFFFFFFFFFFFFFFFFFFFFFFFFFFFFFFFFFFFFFFF AND EQ PUSH2 0x4E4 JUMPI PUSH1 0x40 MLOAD PUSH32 0x8C379A000000000000000000000000000000000000000000000000000000000 DUP2 MSTORE PUSH1 0x4 ADD PUSH2 0x4DB SWAP1 PUSH2 0x1221 JUMP JUMPDEST PUSH1 0x40 MLOAD DUP1 SWAP2 SUB SWAP1 REVERT JUMPDEST PUSH1 0x0 DUP4 PUSH1 0x40 MLOAD PUSH1 0x20 ADD PUSH2 0x4F7 SWAP2 SWAP1 PUSH2 0x127D JUMP JUMPDEST PUSH1 0x40 MLOAD PUSH1 0x20 DUP2 DUP4 SUB SUB DUP2 MSTORE SWAP1 PUSH1 0x40 MSTORE DUP1 MLOAD SWAP1 PUSH1 0x20 ADD KECCAK256 SWAP1 POP DUP3 PUSH1 0x2 PUSH1 0x0 DUP4 DUP2 MSTORE PUSH1 0x20 ADD SWAP1 DUP2 MSTORE PUSH1 0x20 ADD PUSH1 0x0 KECCAK256 DUP2 SWAP1 SSTORE POP PUSH32 0x875595343282DB0F07FCF1E4817D002B9A0F2E6ECBB1745EC307A9FD07EB3DA9 DUP2 PUSH1 0x40 MLOAD PUSH2 0x556 SWAP2 SWAP1 PUSH2 0x12A3 JUMP JUMPDEST PUSH1 0x40 MLOAD DUP1 SWAP2 SUB SWAP1 LOG1 POP POP POP POP JUMP JUMPDEST PUSH1 0x4 PUSH1 0x20 MSTORE DUP1 PUSH1 0x0 MSTORE PUSH1 0x40 PUSH1 0x0 KECCAK256 PUSH1 0x0 SWAP2 POP SLOAD SWAP1 PUSH2 0x100 EXP SWAP1 DIV PUSH1 0xFF AND DUP2 JUMP JUMPDEST PUSH1 0x0 DUP1 DUP3 PUSH1 0x40 MLOAD PUSH1 0x20 ADD PUSH2 0x598 SWAP2 SWAP1 PUSH2 0x127D JUMP JUMPDEST PUSH1 0x40 MLOAD PUSH1 0x20 DUP2 DUP4 SUB SUB DUP2 MSTORE SWAP1 PUSH1 0x40 MSTORE DUP1 MLOAD SWAP1 PUSH1 0x20 ADD KECCAK256 SWAP1 POP PUSH1 0x0 PUSH1 0x2 PUSH1 0x0 DUP4 DUP2 MSTORE PUSH1 0x20 ADD SWAP1 DUP2 MSTORE PUSH1 0x20 ADD PUSH1 0x0 KECCAK256 SLOAD SUB PUSH2 0x606 JUMPI PUSH1 0x40 MLOAD PUSH32 0x8C379A000000000000000000000000000000000000000000000000000000000 DUP2 MSTORE PUSH1 0x4 ADD PUSH2 0x5FD SWAP1 PUSH2 0x1330 JUMP JUMPDEST PUSH1 0x40 MLOAD DUP1 SWAP2 SUB SWAP1 REVERT JUMPDEST PUSH1 0x0 PUSH1 0x2 PUSH1 0x0 DUP4 DUP2 MSTORE PUSH1 0x20 ADD SWAP1 DUP2 MSTORE PUSH1 0x20 ADD PUSH1 0x0 KECCAK256 SLOAD SWAP1 POP DUP1 SWAP3 POP POP POP SWAP2 SWAP1 POP JUMP JUMPDEST PUSH1 0x0 DUP1 SLOAD SWAP1 PUSH2 0x100 EXP SWAP1 DIV PUSH20 0xFFFFFFFFFFFFFFFFFFFFFFFFFFFFFFFFFFFFFFFF AND DUP2 JUMP JUMPDEST CALLER PUSH1 0x0 DUP1 SLOAD SWAP1 PUSH2 0x100 EXP SWAP1 DIV PUSH20 0xFFFFFFFFFFFFFFFFFFFFFFFFFFFFFFFFFFFFFFFF AND PUSH20 0xFFFFFFFFFFFFFFFFFFFFFFFFFFFFFFFFFFFFFFFF AND DUP2 PUSH20 0xFFFFFFFFFFFFFFFFFFFFFFFFFFFFFFFFFFFFFFFF AND EQ PUSH2 0x6DB JUMPI PUSH1 0x40 MLOAD PUSH32 0x8C379A000000000000000000000000000000000000000000000000000000000 DUP2 MSTORE PUSH1 0x4 ADD PUSH2 0x6D2 SWAP1 PUSH2 0x1221 JUMP JUMPDEST PUSH1 0x40 MLOAD DUP1 SWAP2 SUB SWAP1 REVERT JUMPDEST PUSH1 0x0 DUP3 PUSH1 0x40 MLOAD PUSH1 0x20 ADD PUSH2 0x6EE SWAP2 SWAP1 PUSH2 0x127D JUMP JUMPDEST PUSH1 0x40 MLOAD PUSH1 0x20 DUP2 DUP4 SUB SUB DUP2 MSTORE SWAP1 PUSH1 0x40 MSTORE DUP1 MLOAD SWAP1 PUSH1 0x20 ADD KECCAK256 SWAP1 POP PUSH1 0x0 PUSH1 0x2 PUSH1 0x0 DUP4 DUP2 MSTORE PUSH1 0x20 ADD SWAP1 DUP2 MSTORE PUSH1 0x20 ADD PUSH1 0x0 KECCAK256 SLOAD SUB PUSH2 0x75C JUMPI PUSH1 0x40 MLOAD PUSH32 0x8C379A000000000000000000000000000000000000000000000000000000000 DUP2 MSTORE PUSH1 0x4 ADD PUSH2 0x753 SWAP1 PUSH2 0x13C2 JUMP JUMPDEST PUSH1 0x40 MLOAD DUP1 SWAP2 SUB SWAP1 REVERT JUMPDEST PUSH1 0x46 PUSH1 0x2 PUSH1 0x0 DUP4 DUP2 MSTORE PUSH1 0x20 ADD SWAP1 DUP2 MSTORE PUSH1 0x20 ADD PUSH1 0x0 KECCAK256 SLOAD GT PUSH2 0x7B2 JUMPI PUSH1 0x40 MLOAD PUSH32 0x8C379A000000000000000000000000000000000000000000000000000000000 DUP2 MSTORE PUSH1 0x4 ADD PUSH2 0x7A9 SWAP1 PUSH2 0x1454 JUMP JUMPDEST PUSH1 0x40 MLOAD DUP1 SWAP2 SUB SWAP1 REVERT JUMPDEST PUSH1 0x1 PUSH1 0x4 PUSH1 0x0 DUP4 DUP2 MSTORE PUSH1 0x20 ADD SWAP1 DUP2 MSTORE PUSH1 0x20 ADD PUSH1 0x0 KECCAK256 PUSH1 0x0 PUSH2 0x100 EXP DUP2 SLOAD DUP2 PUSH1 0xFF MUL NOT AND SWAP1 DUP4 ISZERO ISZERO MUL OR SWAP1 SSTORE POP PUSH32 0x124F13DFBDA76D1ED661F83B31B07D4A5A48C72BEA1D363F2CA5DF4108316FA9 DUP2 PUSH1 0x40 MLOAD PUSH2 0x80D SWAP2 SWAP1 PUSH2 0x12A3 JUMP JUMPDEST PUSH1 0x40 MLOAD DUP1 SWAP2 SUB SWAP1 LOG1 POP POP POP JUMP JUMPDEST PUSH1 0x0 DUP1 DUP3 PUSH1 0x40 MLOAD PUSH1 0x20 ADD PUSH2 0x82E SWAP2 SWAP1 PUSH2 0x127D JUMP JUMPDEST PUSH1 0x40 MLOAD PUSH1 0x20 DUP2 DUP4 SUB SUB DUP2 MSTORE SWAP1 PUSH1 0x40 MSTORE DUP1 MLOAD SWAP1 PUSH1 0x20 ADD KECCAK256 SWAP1 POP PUSH1 0x0 PUSH1 0x2 PUSH1 0x0 DUP4 DUP2 MSTORE PUSH1 0x20 ADD SWAP1 DUP2 MSTORE PUSH1 0x20 ADD PUSH1 0x0 KECCAK256 SLOAD EQ ISZERO SWAP2 POP POP SWAP2 SWAP1 POP JUMP JUMPDEST PUSH1 0x3 DUP2 SWAP1 DUP1 PUSH1 0x1 DUP2 SLOAD ADD DUP1 DUP3 SSTORE DUP1 SWAP2 POP POP PUSH1 0x1 SWAP1 SUB SWAP1 PUSH1 0x0 MSTORE PUSH1 0x20 PUSH1 0x0 KECCAK256 ADD PUSH1 0x0 SWAP1 SWAP2 SWAP1 SWAP2 SWAP1 SWAP2 POP SWAP1 DUP2 PUSH2 0x89A SWAP2 SWAP1 PUSH2 0x1620 JUMP JUMPDEST POP PUSH32 0x6DB0BA2C4196CBCD5633309FA90850C55B5BCA0F200905D235DB115D13B03C54 DUP2 PUSH1 0x40 MLOAD PUSH2 0x8CA SWAP2 SWAP1 PUSH2 0xC63 JUMP JUMPDEST PUSH1 0x40 MLOAD DUP1 SWAP2 SUB SWAP1 LOG1 POP JUMP JUMPDEST PUSH1 0x0 DUP1 DUP3 PUSH1 0x40 MLOAD PUSH1 0x20 ADD PUSH2 0x8E9 SWAP2 SWAP1 PUSH2 0x127D JUMP JUMPDEST PUSH1 0x40 MLOAD PUSH1 0x20 DUP2 DUP4 SUB SUB DUP2 MSTORE SWAP1 PUSH1 0x40 MSTORE DUP1 MLOAD SWAP1 PUSH1 0x20 ADD KECCAK256 SWAP1 POP PUSH1 0x0 PUSH1 0x2 PUSH1 0x0 DUP4 DUP2 MSTORE PUSH1 0x20 ADD SWAP1 DUP2 MSTORE PUSH1 0x20 ADD PUSH1 0x0 KECCAK256 SLOAD SUB PUSH2 0x957 JUMPI PUSH1 0x40 MLOAD PUSH32 0x8C379A000000000000000000000000000000000000000000000000000000000 DUP2 MSTORE PUSH1 0x4 ADD PUSH2 0x94E SWAP1 PUSH2 0x13C2 JUMP JUMPDEST PUSH1 0x40 MLOAD DUP1 SWAP2 SUB SWAP1 REVERT JUMPDEST PUSH1 0x4 PUSH1 0x0 DUP3 DUP2 MSTORE PUSH1 0x20 ADD SWAP1 DUP2 MSTORE PUSH1 0x20 ADD PUSH1 0x0 KECCAK256 PUSH1 0x0 SWAP1 SLOAD SWAP1 PUSH2 0x100 EXP SWAP1 DIV PUSH1 0xFF AND SWAP2 POP POP SWAP2 SWAP1 POP JUMP JUMPDEST CALLER PUSH1 0x0 DUP1 SLOAD SWAP1 PUSH2 0x100 EXP SWAP1 DIV PUSH20 0xFFFFFFFFFFFFFFFFFFFFFFFFFFFFFFFFFFFFFFFF AND PUSH20 0xFFFFFFFFFFFFFFFFFFFFFFFFFFFFFFFFFFFFFFFF AND DUP2 PUSH20 0xFFFFFFFFFFFFFFFFFFFFFFFFFFFFFFFFFFFFFFFF AND EQ PUSH2 0xA0F JUMPI PUSH1 0x40 MLOAD PUSH32 0x8C379A000000000000000000000000000000000000000000000000000000000 DUP2 MSTORE PUSH1 0x4 ADD PUSH2 0xA06 SWAP1 PUSH2 0x1221 JUMP JUMPDEST PUSH1 0x40 MLOAD DUP1 SWAP2 SUB SWAP1 REVERT JUMPDEST DUP2 PUSH1 0x1 SWAP1 DUP2 PUSH2 0xA1E SWAP2 SWAP1 PUSH2 0x1620 JUMP JUMPDEST POP PUSH32 0xF91803795335BD89CFE30ECE2CE1937E0648B3E8A1923DF79FFFAEE1A819833E DUP3 PUSH1 0x40 MLOAD PUSH2 0xA4E SWAP2 SWAP1 PUSH2 0xC63 JUMP JUMPDEST PUSH1 0x40 MLOAD DUP1 SWAP2 SUB SWAP1 LOG1 POP POP JUMP JUMPDEST CALLER PUSH1 0x0 DUP1 SLOAD SWAP1 PUSH2 0x100 EXP SWAP1 DIV PUSH20 0xFFFFFFFFFFFFFFFFFFFFFFFFFFFFFFFFFFFFFFFF AND PUSH20 0xFFFFFFFFFFFFFFFFFFFFFFFFFFFFFFFFFFFFFFFF AND DUP2 PUSH20 0xFFFFFFFFFFFFFFFFFFFFFFFFFFFFFFFFFFFFFFFF AND EQ PUSH2 0xAE9 JUMPI PUSH1 0x40 MLOAD PUSH32 0x8C379A000000000000000000000000000000000000000000000000000000000 DUP2 MSTORE PUSH1 0x4 ADD PUSH2 0xAE0 SWAP1 PUSH2 0x1221 JUMP JUMPDEST PUSH1 0x40 MLOAD DUP1 SWAP2 SUB SWAP1 REVERT JUMPDEST PUSH1 0x0 PUSH20 0xFFFFFFFFFFFFFFFFFFFFFFFFFFFFFFFFFFFFFFFF AND DUP3 PUSH20 0xFFFFFFFFFFFFFFFFFFFFFFFFFFFFFFFFFFFFFFFF AND SUB PUSH2 0xB58 JUMPI PUSH1 0x40 MLOAD PUSH32 0x8C379A000000000000000000000000000000000000000000000000000000000 DUP2 MSTORE PUSH1 0x4 ADD PUSH2 0xB4F SWAP1 PUSH2 0x1764 JUMP JUMPDEST PUSH1 0x40 MLOAD DUP1 SWAP2 SUB SWAP1 REVERT JUMPDEST DUP2 PUSH1 0x0 DUP1 PUSH2 0x100 EXP DUP2 SLOAD DUP2 PUSH20 0xFFFFFFFFFFFFFFFFFFFFFFFFFFFFFFFFFFFFFFFF MUL NOT AND SWAP1 DUP4 PUSH20 0xFFFFFFFFFFFFFFFFFFFFFFFFFFFFFFFFFFFFFFFF AND MUL OR SWAP1 SSTORE POP PUSH32 0x151C4DA579F95E380942D07C438E19F2F7A92AC9B841B7C433B545349ED79F64 DUP3 PUSH1 0x40 MLOAD PUSH2 0xBC7 SWAP2 SWAP1 PUSH2 0x10DB JUMP JUMPDEST PUSH1 0x40 MLOAD DUP1 SWAP2 SUB SWAP1 LOG1 POP POP JUMP JUMPDEST PUSH1 0x0 DUP2 MLOAD SWAP1 POP SWAP2 SWAP1 POP JUMP JUMPDEST PUSH1 0x0 DUP3 DUP3 MSTORE PUSH1 0x20 DUP3 ADD SWAP1 POP SWAP3 SWAP2 POP POP JUMP JUMPDEST PUSH1 0x0 JUMPDEST DUP4 DUP2 LT ISZERO PUSH2 0xC0D JUMPI DUP1 DUP3 ADD MLOAD DUP2 DUP5 ADD MSTORE PUSH1 0x20 DUP2 ADD SWAP1 POP PUSH2 0xBF2 JUMP JUMPDEST PUSH1 0x0 DUP5 DUP5 ADD MSTORE POP POP POP POP JUMP JUMPDEST PUSH1 0x0 PUSH1 0x1F NOT PUSH1 0x1F DUP4 ADD AND SWAP1 POP SWAP2 SWAP1 POP JUMP JUMPDEST PUSH1 0x0 PUSH2 0xC35 DUP3 PUSH2 0xBD3 JUMP JUMPDEST PUSH2 0xC3F DUP2 DUP6 PUSH2 0xBDE JUMP JUMPDEST SWAP4 POP PUSH2 0xC4F DUP2 DUP6 PUSH1 0x20 DUP7 ADD PUSH2 0xBEF JUMP JUMPDEST PUSH2 0xC58 DUP2 PUSH2 0xC19 JUMP JUMPDEST DUP5 ADD SWAP2 POP POP SWAP3 SWAP2 POP POP JUMP JUMPDEST PUSH1 0x0 PUSH1 0x20 DUP3 ADD SWAP1 POP DUP2 DUP2 SUB PUSH1 0x0 DUP4 ADD MSTORE PUSH2 0xC7D DUP2 DUP5 PUSH2 0xC2A JUMP JUMPDEST SWAP1 POP SWAP3 SWAP2 POP POP JUMP JUMPDEST PUSH1 0x0 DUP2 MLOAD SWAP1 POP SWAP2 SWAP1 POP JUMP JUMPDEST PUSH1 0x0 DUP3 DUP3 MSTORE PUSH1 0x20 DUP3 ADD SWAP1 POP SWAP3 SWAP2 POP POP JUMP JUMPDEST PUSH1 0x0 DUP2 SWAP1 POP PUSH1 0x20 DUP3 ADD SWAP1 POP SWAP2 SWAP1 POP JUMP JUMPDEST PUSH1 0x0 DUP3 DUP3 MSTORE PUSH1 0x20 DUP3 ADD SWAP1 POP SWAP3 SWAP2 POP POP JUMP JUMPDEST PUSH1 0x0 PUSH2 0xCCD DUP3 PUSH2 0xBD3 JUMP JUMPDEST PUSH2 0xCD7 DUP2 DUP6 PUSH2 0xCB1 JUMP JUMPDEST SWAP4 POP PUSH2 0xCE7 DUP2 DUP6 PUSH1 0x20 DUP7 ADD PUSH2 0xBEF JUMP JUMPDEST PUSH2 0xCF0 DUP2 PUSH2 0xC19 JUMP JUMPDEST DUP5 ADD SWAP2 POP POP SWAP3 SWAP2 POP POP JUMP JUMPDEST PUSH1 0x0 PUSH2 0xD07 DUP4 DUP4 PUSH2 0xCC2 JUMP JUMPDEST SWAP1 POP SWAP3 SWAP2 POP POP JUMP JUMPDEST PUSH1 0x0 PUSH1 0x20 DUP3 ADD SWAP1 POP SWAP2 SWAP1 POP JUMP JUMPDEST PUSH1 0x0 PUSH2 0xD27 DUP3 PUSH2 0xC85 JUMP JUMPDEST PUSH2 0xD31 DUP2 DUP6 PUSH2 0xC90 JUMP JUMPDEST SWAP4 POP DUP4 PUSH1 0x20 DUP3 MUL DUP6 ADD PUSH2 0xD43 DUP6 PUSH2 0xCA1 JUMP JUMPDEST DUP1 PUSH1 0x0 JUMPDEST DUP6 DUP2 LT ISZERO PUSH2 0xD7F JUMPI DUP5 DUP5 SUB DUP10 MSTORE DUP2 MLOAD PUSH2 0xD60 DUP6 DUP3 PUSH2 0xCFB JUMP JUMPDEST SWAP5 POP PUSH2 0xD6B DUP4 PUSH2 0xD0F JUMP JUMPDEST SWAP3 POP PUSH1 0x20 DUP11 ADD SWAP10 POP POP PUSH1 0x1 DUP2 ADD SWAP1 POP PUSH2 0xD47 JUMP JUMPDEST POP DUP3 SWAP8 POP DUP8 SWAP6 POP POP POP POP POP POP SWAP3 SWAP2 POP POP JUMP JUMPDEST PUSH1 0x0 PUSH1 0x20 DUP3 ADD SWAP1 POP DUP2 DUP2 SUB PUSH1 0x0 DUP4 ADD MSTORE PUSH2 0xDAB DUP2 DUP5 PUSH2 0xD1C JUMP JUMPDEST SWAP1 POP SWAP3 SWAP2 POP POP JUMP JUMPDEST PUSH1 0x0 PUSH1 0x40 MLOAD SWAP1 POP SWAP1 JUMP JUMPDEST PUSH1 0x0 DUP1 REVERT JUMPDEST PUSH1 0x0 DUP1 REVERT JUMPDEST PUSH1 0x0 DUP1 REVERT JUMPDEST PUSH1 0x0 DUP1 REVERT JUMPDEST PUSH32 0x4E487B7100000000000000000000000000000000000000000000000000000000 PUSH1 0x0 MSTORE PUSH1 0x41 PUSH1 0x4 MSTORE PUSH1 0x24 PUSH1 0x0 REVERT JUMPDEST PUSH2 0xE09 DUP3 PUSH2 0xC19 JUMP JUMPDEST DUP2 ADD DUP2 DUP2 LT PUSH8 0xFFFFFFFFFFFFFFFF DUP3 GT OR ISZERO PUSH2 0xE28 JUMPI PUSH2 0xE27 PUSH2 0xDD1 JUMP JUMPDEST JUMPDEST DUP1 PUSH1 0x40 MSTORE POP POP POP JUMP JUMPDEST PUSH1 0x0 PUSH2 0xE3B PUSH2 0xDB3 JUMP JUMPDEST SWAP1 POP PUSH2 0xE47 DUP3 DUP3 PUSH2 0xE00 JUMP JUMPDEST SWAP2 SWAP1 POP JUMP JUMPDEST PUSH1 0x0 PUSH8 0xFFFFFFFFFFFFFFFF DUP3 GT ISZERO PUSH2 0xE67 JUMPI PUSH2 0xE66 PUSH2 0xDD1 JUMP JUMPDEST JUMPDEST PUSH2 0xE70 DUP3 PUSH2 0xC19 JUMP JUMPDEST SWAP1 POP PUSH1 0x20 DUP2 ADD SWAP1 POP SWAP2 SWAP1 POP JUMP JUMPDEST DUP3 DUP2 DUP4 CALLDATACOPY PUSH1 0x0 DUP4 DUP4 ADD MSTORE POP POP POP JUMP JUMPDEST PUSH1 0x0 PUSH2 0xE9F PUSH2 0xE9A DUP5 PUSH2 0xE4C JUMP JUMPDEST PUSH2 0xE31 JUMP JUMPDEST SWAP1 POP DUP3 DUP2 MSTORE PUSH1 0x20 DUP2 ADD DUP5 DUP5 DUP5 ADD GT ISZERO PUSH2 0xEBB JUMPI PUSH2 0xEBA PUSH2 0xDCC JUMP JUMPDEST JUMPDEST PUSH2 0xEC6 DUP5 DUP3 DUP6 PUSH2 0xE7D JUMP JUMPDEST POP SWAP4 SWAP3 POP POP POP JUMP JUMPDEST PUSH1 0x0 DUP3 PUSH1 0x1F DUP4 ADD SLT PUSH2 0xEE3 JUMPI PUSH2 0xEE2 PUSH2 0xDC7 JUMP JUMPDEST JUMPDEST DUP2 CALLDATALOAD PUSH2 0xEF3 DUP5 DUP3 PUSH1 0x20 DUP7 ADD PUSH2 0xE8C JUMP JUMPDEST SWAP2 POP POP SWAP3 SWAP2 POP POP JUMP JUMPDEST PUSH1 0x0 DUP2 SWAP1 POP SWAP2 SWAP1 POP JUMP JUMPDEST PUSH2 0xF0F DUP2 PUSH2 0xEFC JUMP JUMPDEST DUP2 EQ PUSH2 0xF1A JUMPI PUSH1 0x0 DUP1 REVERT JUMPDEST POP JUMP JUMPDEST PUSH1 0x0 DUP2 CALLDATALOAD SWAP1 POP PUSH2 0xF2C DUP2 PUSH2 0xF06 JUMP JUMPDEST SWAP3 SWAP2 POP POP JUMP JUMPDEST PUSH1 0x0 DUP1 PUSH1 0x40 DUP4 DUP6 SUB SLT ISZERO PUSH2 0xF49 JUMPI PUSH2 0xF48 PUSH2 0xDBD JUMP JUMPDEST JUMPDEST PUSH1 0x0 DUP4 ADD CALLDATALOAD PUSH8 0xFFFFFFFFFFFFFFFF DUP2 GT ISZERO PUSH2 0xF67 JUMPI PUSH2 0xF66 PUSH2 0xDC2 JUMP JUMPDEST JUMPDEST PUSH2 0xF73 DUP6 DUP3 DUP7 ADD PUSH2 0xECE JUMP JUMPDEST SWAP3 POP POP PUSH1 0x20 PUSH2 0xF84 DUP6 DUP3 DUP7 ADD PUSH2 0xF1D JUMP JUMPDEST SWAP2 POP POP SWAP3 POP SWAP3 SWAP1 POP JUMP JUMPDEST PUSH1 0x0 DUP2 SWAP1 POP SWAP2 SWAP1 POP JUMP JUMPDEST PUSH2 0xFA1 DUP2 PUSH2 0xF8E JUMP JUMPDEST DUP2 EQ PUSH2 0xFAC JUMPI PUSH1 0x0 DUP1 REVERT JUMPDEST POP JUMP JUMPDEST PUSH1 0x0 DUP2 CALLDATALOAD SWAP1 POP PUSH2 0xFBE DUP2 PUSH2 0xF98 JUMP JUMPDEST SWAP3 SWAP2 POP POP JUMP JUMPDEST PUSH1 0x0 PUSH1 0x20 DUP3 DUP5 SUB SLT ISZERO PUSH2 0xFDA JUMPI PUSH2 0xFD9 PUSH2 0xDBD JUMP JUMPDEST JUMPDEST PUSH1 0x0 PUSH2 0xFE8 DUP5 DUP3 DUP6 ADD PUSH2 0xFAF JUMP JUMPDEST SWAP2 POP POP SWAP3 SWAP2 POP POP JUMP JUMPDEST PUSH1 0x0 DUP2 ISZERO ISZERO SWAP1 POP SWAP2 SWAP1 POP JUMP JUMPDEST PUSH2 0x1006 DUP2 PUSH2 0xFF1 JUMP JUMPDEST DUP3 MSTORE POP POP JUMP JUMPDEST PUSH1 0x0 PUSH1 0x20 DUP3 ADD SWAP1 POP PUSH2 0x1021 PUSH1 0x0 DUP4 ADD DUP5 PUSH2 0xFFD JUMP JUMPDEST SWAP3 SWAP2 POP POP JUMP JUMPDEST PUSH1 0x0 PUSH1 0x20 DUP3 DUP5 SUB SLT ISZERO PUSH2 0x103D JUMPI PUSH2 0x103C PUSH2 0xDBD JUMP JUMPDEST JUMPDEST PUSH1 0x0 DUP3 ADD CALLDATALOAD PUSH8 0xFFFFFFFFFFFFFFFF DUP2 GT ISZERO PUSH2 0x105B JUMPI PUSH2 0x105A PUSH2 0xDC2 JUMP JUMPDEST JUMPDEST PUSH2 0x1067 DUP5 DUP3 DUP6 ADD PUSH2 0xECE JUMP JUMPDEST SWAP2 POP POP SWAP3 SWAP2 POP POP JUMP JUMPDEST PUSH2 0x1079 DUP2 PUSH2 0xEFC JUMP JUMPDEST DUP3 MSTORE POP POP JUMP JUMPDEST PUSH1 0x0 PUSH1 0x20 DUP3 ADD SWAP1 POP PUSH2 0x1094 PUSH1 0x0 DUP4 ADD DUP5 PUSH2 0x1070 JUMP JUMPDEST SWAP3 SWAP2 POP POP JUMP JUMPDEST PUSH1 0x0 PUSH20 0xFFFFFFFFFFFFFFFFFFFFFFFFFFFFFFFFFFFFFFFF DUP3 AND SWAP1 POP SWAP2 SWAP1 POP JUMP JUMPDEST PUSH1 0x0 PUSH2 0x10C5 DUP3 PUSH2 0x109A JUMP JUMPDEST SWAP1 POP SWAP2 SWAP1 POP JUMP JUMPDEST PUSH2 0x10D5 DUP2 PUSH2 0x10BA JUMP JUMPDEST DUP3 MSTORE POP POP JUMP JUMPDEST PUSH1 0x0 PUSH1 0x20 DUP3 ADD SWAP1 POP PUSH2 0x10F0 PUSH1 0x0 DUP4 ADD DUP5 PUSH2 0x10CC JUMP JUMPDEST SWAP3 SWAP2 POP POP JUMP JUMPDEST PUSH2 0x10FF DUP2 PUSH2 0x10BA JUMP JUMPDEST DUP2 EQ PUSH2 0x110A JUMPI PUSH1 0x0 DUP1 REVERT JUMPDEST POP JUMP JUMPDEST PUSH1 0x0 DUP2 CALLDATALOAD SWAP1 POP PUSH2 0x111C DUP2 PUSH2 0x10F6 JUMP JUMPDEST SWAP3 SWAP2 POP POP JUMP JUMPDEST PUSH1 0x0 PUSH1 0x20 DUP3 DUP5 SUB SLT ISZERO PUSH2 0x1138 JUMPI PUSH2 0x1137 PUSH2 0xDBD JUMP JUMPDEST JUMPDEST PUSH1 0x0 PUSH2 0x1146 DUP5 DUP3 DUP6 ADD PUSH2 0x110D JUMP JUMPDEST SWAP2 POP POP SWAP3 SWAP2 POP POP JUMP JUMPDEST PUSH32 0x4E487B7100000000000000000000000000000000000000000000000000000000 PUSH1 0x0 MSTORE PUSH1 0x22 PUSH1 0x4 MSTORE PUSH1 0x24 PUSH1 0x0 REVERT JUMPDEST PUSH1 0x0 PUSH1 0x2 DUP3 DIV SWAP1 POP PUSH1 0x1 DUP3 AND DUP1 PUSH2 0x1196 JUMPI PUSH1 0x7F DUP3 AND SWAP2 POP JUMPDEST PUSH1 0x20 DUP3 LT DUP2 SUB PUSH2 0x11A9 JUMPI PUSH2 0x11A8 PUSH2 0x114F JUMP JUMPDEST JUMPDEST POP SWAP2 SWAP1 POP JUMP JUMPDEST PUSH32 0x596F7520646F206E6F742068617665207065726D697373696F6E20746F206578 PUSH1 0x0 DUP3 ADD MSTORE PUSH32 0x656375746520746869732066756E6374696F6E2E000000000000000000000000 PUSH1 0x20 DUP3 ADD MSTORE POP JUMP JUMPDEST PUSH1 0x0 PUSH2 0x120B PUSH1 0x34 DUP4 PUSH2 0xBDE JUMP JUMPDEST SWAP2 POP PUSH2 0x1216 DUP3 PUSH2 0x11AF JUMP JUMPDEST PUSH1 0x40 DUP3 ADD SWAP1 POP SWAP2 SWAP1 POP JUMP JUMPDEST PUSH1 0x0 PUSH1 0x20 DUP3 ADD SWAP1 POP DUP2 DUP2 SUB PUSH1 0x0 DUP4 ADD MSTORE PUSH2 0x123A DUP2 PUSH2 0x11FE JUMP JUMPDEST SWAP1 POP SWAP2 SWAP1 POP JUMP JUMPDEST PUSH1 0x0 DUP2 SWAP1 POP SWAP3 SWAP2 POP POP JUMP JUMPDEST PUSH1 0x0 PUSH2 0x1257 DUP3 PUSH2 0xBD3 JUMP JUMPDEST PUSH2 0x1261 DUP2 DUP6 PUSH2 0x1241 JUMP JUMPDEST SWAP4 POP PUSH2 0x1271 DUP2 DUP6 PUSH1 0x20 DUP7 ADD PUSH2 0xBEF JUMP JUMPDEST DUP1 DUP5 ADD SWAP2 POP POP SWAP3 SWAP2 POP POP JUMP JUMPDEST PUSH1 0x0 PUSH2 0x1289 DUP3 DUP5 PUSH2 0x124C JUMP JUMPDEST SWAP2 POP DUP2 SWAP1 POP SWAP3 SWAP2 POP POP JUMP JUMPDEST PUSH2 0x129D DUP2 PUSH2 0xF8E JUMP JUMPDEST DUP3 MSTORE POP POP JUMP JUMPDEST PUSH1 0x0 PUSH1 0x20 DUP3 ADD SWAP1 POP PUSH2 0x12B8 PUSH1 0x0 DUP4 ADD DUP5 PUSH2 0x1294 JUMP JUMPDEST SWAP3 SWAP2 POP POP JUMP JUMPDEST PUSH32 0x53747564656E7420646F65736E2774207365656D20746F206861766520612067 PUSH1 0x0 DUP3 ADD MSTORE PUSH32 0x7261646500000000000000000000000000000000000000000000000000000000 PUSH1 0x20 DUP3 ADD MSTORE POP JUMP JUMPDEST PUSH1 0x0 PUSH2 0x131A PUSH1 0x24 DUP4 PUSH2 0xBDE JUMP JUMPDEST SWAP2 POP PUSH2 0x1325 DUP3 PUSH2 0x12BE JUMP JUMPDEST PUSH1 0x40 DUP3 ADD SWAP1 POP SWAP2 SWAP1 POP JUMP JUMPDEST PUSH1 0x0 PUSH1 0x20 DUP3 ADD SWAP1 POP DUP2 DUP2 SUB PUSH1 0x0 DUP4 ADD MSTORE PUSH2 0x1349 DUP2 PUSH2 0x130D JUMP JUMPDEST SWAP1 POP SWAP2 SWAP1 POP JUMP JUMPDEST PUSH32 0x5468652073747564656E7420686173206E6F2067726164657320726567697374 PUSH1 0x0 DUP3 ADD MSTORE PUSH32 0x6572656400000000000000000000000000000000000000000000000000000000 PUSH1 0x20 DUP3 ADD MSTORE POP JUMP JUMPDEST PUSH1 0x0 PUSH2 0x13AC PUSH1 0x24 DUP4 PUSH2 0xBDE JUMP JUMPDEST SWAP2 POP PUSH2 0x13B7 DUP3 PUSH2 0x1350 JUMP JUMPDEST PUSH1 0x40 DUP3 ADD SWAP1 POP SWAP2 SWAP1 POP JUMP JUMPDEST PUSH1 0x0 PUSH1 0x20 DUP3 ADD SWAP1 POP DUP2 DUP2 SUB PUSH1 0x0 DUP4 ADD MSTORE PUSH2 0x13DB DUP2 PUSH2 0x139F JUMP JUMPDEST SWAP1 POP SWAP2 SWAP1 POP JUMP JUMPDEST PUSH32 0x4772616465206973206E6F74206869676820656E6F75676820746F2069737375 PUSH1 0x0 DUP3 ADD MSTORE PUSH32 0x6520612063726564656E7469616C2E0000000000000000000000000000000000 PUSH1 0x20 DUP3 ADD MSTORE POP JUMP JUMPDEST PUSH1 0x0 PUSH2 0x143E PUSH1 0x2F DUP4 PUSH2 0xBDE JUMP JUMPDEST SWAP2 POP PUSH2 0x1449 DUP3 PUSH2 0x13E2 JUMP JUMPDEST PUSH1 0x40 DUP3 ADD SWAP1 POP SWAP2 SWAP1 POP JUMP JUMPDEST PUSH1 0x0 PUSH1 0x20 DUP3 ADD SWAP1 POP DUP2 DUP2 SUB PUSH1 0x0 DUP4 ADD MSTORE PUSH2 0x146D DUP2 PUSH2 0x1431 JUMP JUMPDEST SWAP1 POP SWAP2 SWAP1 POP JUMP JUMPDEST PUSH1 0x0 DUP2 SWAP1 POP DUP2 PUSH1 0x0 MSTORE PUSH1 0x20 PUSH1 0x0 KECCAK256 SWAP1 POP SWAP2 SWAP1 POP JUMP JUMPDEST PUSH1 0x0 PUSH1 0x20 PUSH1 0x1F DUP4 ADD DIV SWAP1 POP SWAP2 SWAP1 POP JUMP JUMPDEST PUSH1 0x0 DUP3 DUP3 SHL SWAP1 POP SWAP3 SWAP2 POP POP JUMP JUMPDEST PUSH1 0x0 PUSH1 0x8 DUP4 MUL PUSH2 0x14D6 PUSH32 0xFFFFFFFFFFFFFFFFFFFFFFFFFFFFFFFFFFFFFFFFFFFFFFFFFFFFFFFFFFFFFFFF DUP3 PUSH2 0x1499 JUMP JUMPDEST PUSH2 0x14E0 DUP7 DUP4 PUSH2 0x1499 JUMP JUMPDEST SWAP6 POP DUP1 NOT DUP5 AND SWAP4 POP DUP1 DUP7 AND DUP5 OR SWAP3 POP POP POP SWAP4 SWAP3 POP POP POP JUMP JUMPDEST PUSH1 0x0 DUP2 SWAP1 POP SWAP2 SWAP1 POP JUMP JUMPDEST PUSH1 0x0 PUSH2 0x151D PUSH2 0x1518 PUSH2 0x1513 DUP5 PUSH2 0xEFC JUMP JUMPDEST PUSH2 0x14F8 JUMP JUMPDEST PUSH2 0xEFC JUMP JUMPDEST SWAP1 POP SWAP2 SWAP1 POP JUMP JUMPDEST PUSH1 0x0 DUP2 SWAP1 POP SWAP2 SWAP1 POP JUMP JUMPDEST PUSH2 0x1537 DUP4 PUSH2 0x1502 JUMP JUMPDEST PUSH2 0x154B PUSH2 0x1543 DUP3 PUSH2 0x1524 JUMP JUMPDEST DUP5 DUP5 SLOAD PUSH2 0x14A6 JUMP JUMPDEST DUP3 SSTORE POP POP POP POP JUMP JUMPDEST PUSH1 0x0 SWAP1 JUMP JUMPDEST PUSH2 0x1560 PUSH2 0x1553 JUMP JUMPDEST PUSH2 0x156B DUP2 DUP5 DUP5 PUSH2 0x152E JUMP JUMPDEST POP POP POP JUMP JUMPDEST JUMPDEST DUP2 DUP2 LT ISZERO PUSH2 0x158F JUMPI PUSH2 0x1584 PUSH1 0x0 DUP3 PUSH2 0x1558 JUMP JUMPDEST PUSH1 0x1 DUP2 ADD SWAP1 POP PUSH2 0x1571 JUMP JUMPDEST POP POP JUMP JUMPDEST PUSH1 0x1F DUP3 GT ISZERO PUSH2 0x15D4 JUMPI PUSH2 0x15A5 DUP2 PUSH2 0x1474 JUMP JUMPDEST PUSH2 0x15AE DUP5 PUSH2 0x1489 JUMP JUMPDEST DUP2 ADD PUSH1 0x20 DUP6 LT ISZERO PUSH2 0x15BD JUMPI DUP2 SWAP1 POP JUMPDEST PUSH2 0x15D1 PUSH2 0x15C9 DUP6 PUSH2 0x1489 JUMP JUMPDEST DUP4 ADD DUP3 PUSH2 0x1570 JUMP JUMPDEST POP POP JUMPDEST POP POP POP JUMP JUMPDEST PUSH1 0x0 DUP3 DUP3 SHR SWAP1 POP SWAP3 SWAP2 POP POP JUMP JUMPDEST PUSH1 0x0 PUSH2 0x15F7 PUSH1 0x0 NOT DUP5 PUSH1 0x8 MUL PUSH2 0x15D9 JUMP JUMPDEST NOT DUP1 DUP4 AND SWAP2 POP POP SWAP3 SWAP2 POP POP JUMP JUMPDEST PUSH1 0x0 PUSH2 0x1610 DUP4 DUP4 PUSH2 0x15E6 JUMP JUMPDEST SWAP2 POP DUP3 PUSH1 0x2 MUL DUP3 OR SWAP1 POP SWAP3 SWAP2 POP POP JUMP JUMPDEST PUSH2 0x1629 DUP3 PUSH2 0xBD3 JUMP JUMPDEST PUSH8 0xFFFFFFFFFFFFFFFF DUP2 GT ISZERO PUSH2 0x1642 JUMPI PUSH2 0x1641 PUSH2 0xDD1 JUMP JUMPDEST JUMPDEST PUSH2 0x164C DUP3 SLOAD PUSH2 0x117E JUMP JUMPDEST PUSH2 0x1657 DUP3 DUP3 DUP6 PUSH2 0x1593 JUMP JUMPDEST PUSH1 0x0 PUSH1 0x20 SWAP1 POP PUSH1 0x1F DUP4 GT PUSH1 0x1 DUP2 EQ PUSH2 0x168A JUMPI PUSH1 0x0 DUP5 ISZERO PUSH2 0x1678 JUMPI DUP3 DUP8 ADD MLOAD SWAP1 POP JUMPDEST PUSH2 0x1682 DUP6 DUP3 PUSH2 0x1604 JUMP JUMPDEST DUP7 SSTORE POP PUSH2 0x16EA JUMP JUMPDEST PUSH1 0x1F NOT DUP5 AND PUSH2 0x1698 DUP7 PUSH2 0x1474 JUMP JUMPDEST PUSH1 0x0 JUMPDEST DUP3 DUP2 LT ISZERO PUSH2 0x16C0 JUMPI DUP5 DUP10 ADD MLOAD DUP3 SSTORE PUSH1 0x1 DUP3 ADD SWAP2 POP PUSH1 0x20 DUP6 ADD SWAP5 POP PUSH1 0x20 DUP2 ADD SWAP1 POP PUSH2 0x169B JUMP JUMPDEST DUP7 DUP4 LT ISZERO PUSH2 0x16DD JUMPI DUP5 DUP10 ADD MLOAD PUSH2 0x16D9 PUSH1 0x1F DUP10 AND DUP3 PUSH2 0x15E6 JUMP JUMPDEST DUP4 SSTORE POP JUMPDEST PUSH1 0x1 PUSH1 0x2 DUP9 MUL ADD DUP9 SSTORE POP POP POP JUMPDEST POP POP POP POP POP POP JUMP JUMPDEST PUSH32 0x4E65772070726F666573736F7220616464726573732063616E6E6F7420626520 PUSH1 0x0 DUP3 ADD MSTORE PUSH32 0x746865207A65726F20616464726573732E000000000000000000000000000000 PUSH1 0x20 DUP3 ADD MSTORE POP JUMP JUMPDEST PUSH1 0x0 PUSH2 0x174E PUSH1 0x31 DUP4 PUSH2 0xBDE JUMP JUMPDEST SWAP2 POP PUSH2 0x1759 DUP3 PUSH2 0x16F2 JUMP JUMPDEST PUSH1 0x40 DUP3 ADD SWAP1 POP SWAP2 SWAP1 POP JUMP JUMPDEST PUSH1 0x0 PUSH1 0x20 DUP3 ADD SWAP1 POP DUP2 DUP2 SUB PUSH1 0x0 DUP4 ADD MSTORE PUSH2 0x177D DUP2 PUSH2 0x1741 JUMP JUMPDEST SWAP1 POP SWAP2 SWAP1 POP JUMP INVALID LOG2 PUSH5 0x6970667358 0x22 SLT KECCAK256 PUSH24 0xC0115549CD7AE85118E83E387AB0FFEBC11B32D3E58E11A3 0xD1 0xED DUP8 EXTCODESIZE NOT CREATE2 PUSH30 0x64736F6C6343000818003300000000000000000000000000000000000000 "
        },
        "methodIdentifiers": {
          "changeClassName(string)": "efa1b45d",
          "changeProfessor(address)": "f750301d",
          "checkIfStudentHasGrade(string)": "9c920f8c",
          "className()": "00c51f8c",
          "credentials(bytes32)": "299d0348",
          "grade(string,uint256)": "16708cc2",
          "hasCredential(string)": "e75e233c",
          "issueCredential(string)": "811f9487",
          "professor()": "5113940d",
          "requestReview(string)": "d4807bf0",
          "viewGrades(string)": "39d789c2",
          "viewReviews()": "020ef95c"
        }
      }
    }
  }
}